{
  "address": "0xe8Bb1819783B7C7372b51A14C7d8ACa6EcA79541",
  "abi": [
    {
      "inputs": [
        {
          "internalType": "string[]",
          "name": "nodes",
          "type": "string[]"
        }
      ],
      "stateMutability": "nonpayable",
      "type": "constructor"
    },
    {
      "anonymous": false,
      "inputs": [
        {
          "indexed": false,
          "internalType": "uint256",
          "name": "id",
          "type": "uint256"
        },
        {
          "indexed": false,
          "internalType": "enum StateTransition.State",
          "name": "newState",
          "type": "uint8"
        },
        {
          "indexed": false,
          "internalType": "string",
          "name": "location",
          "type": "string"
        },
        {
          "indexed": false,
          "internalType": "uint256",
          "name": "timestamp",
          "type": "uint256"
        }
      ],
      "name": "ProductStateUpdated",
      "type": "event"
    },
    {
      "inputs": [],
      "name": "fetchNodes",
      "outputs": [
        {
          "internalType": "uint256[]",
          "name": "ids",
          "type": "uint256[]"
        },
        {
          "internalType": "string[]",
          "name": "nodes",
          "type": "string[]"
        }
      ],
      "stateMutability": "view",
      "type": "function"
    },
    {
      "inputs": [
        {
          "internalType": "uint256",
          "name": "id",
          "type": "uint256"
        }
      ],
      "name": "getState",
      "outputs": [
        {
          "components": [
            {
              "internalType": "uint256",
              "name": "id",
              "type": "uint256"
            },
            {
              "internalType": "bytes24",
              "name": "hashedRfid",
              "type": "bytes24"
            },
            {
              "internalType": "enum StateTransition.State",
              "name": "state",
              "type": "uint8"
            },
            {
              "internalType": "string",
              "name": "location",
              "type": "string"
            },
            {
              "internalType": "uint256",
              "name": "timestamp",
              "type": "uint256"
            }
          ],
          "internalType": "struct StateTransition.ProductState",
          "name": "",
          "type": "tuple"
        }
      ],
      "stateMutability": "view",
      "type": "function"
    },
    {
      "inputs": [],
      "name": "nodeCount",
      "outputs": [
        {
          "internalType": "uint256",
          "name": "",
          "type": "uint256"
        }
      ],
      "stateMutability": "view",
      "type": "function"
    },
    {
      "inputs": [
        {
          "internalType": "uint256",
          "name": "",
          "type": "uint256"
        }
      ],
      "name": "productStates",
      "outputs": [
        {
          "internalType": "uint256",
          "name": "id",
          "type": "uint256"
        },
        {
          "internalType": "bytes24",
          "name": "hashedRfid",
          "type": "bytes24"
        },
        {
          "internalType": "enum StateTransition.State",
          "name": "state",
          "type": "uint8"
        },
        {
          "internalType": "string",
          "name": "location",
          "type": "string"
        },
        {
          "internalType": "uint256",
          "name": "timestamp",
          "type": "uint256"
        }
      ],
      "stateMutability": "view",
      "type": "function"
    },
    {
      "inputs": [
        {
          "internalType": "uint256",
          "name": "",
          "type": "uint256"
        }
      ],
      "name": "supplyChainNodes",
      "outputs": [
        {
          "internalType": "string",
          "name": "",
          "type": "string"
        }
      ],
      "stateMutability": "view",
      "type": "function"
    },
    {
      "inputs": [
        {
          "internalType": "uint256",
          "name": "id",
          "type": "uint256"
        },
        {
          "internalType": "bytes24",
          "name": "rfid",
          "type": "bytes24"
        },
        {
          "internalType": "enum StateTransition.State",
          "name": "newState",
          "type": "uint8"
        },
        {
          "internalType": "uint256",
          "name": "location",
          "type": "uint256"
        }
      ],
      "name": "updateState",
      "outputs": [],
      "stateMutability": "nonpayable",
      "type": "function"
    }
  ],
  "transactionHash": "0x92f5f6a199f7085b0ae7c26ad301539e974d49f4931060c90ee3f05dbb1560f5",
  "args": [
    [
      "Chicago",
      "New York",
      "Los Angeles",
      "Austin",
      "Miami"
    ]
  ],
  "numDeployments": 1,
  "solcInputHash": "ea9018031bc3e921d6cf2943be826b94",
  "bytecode": "0x60806040523480156200001157600080fd5b50604051620011e6380380620011e68339810160408190526200003491620001b1565b60408051808201909152600a815269125b88151c985b9cda5d60b21b60208083019190915260008052600190527fa6eef7e35abe7026729641147f7915573c7e97b47efa546f5f6e3230263bcb49906200008f908262000384565b5080516200009f90600262000466565b60005560015b815181116200010e5781620000bc60018362000482565b81518110620000cf57620000cf62000498565b6020026020010151600160008381526020019081526020016000209081620000f8919062000384565b50806200010581620004ae565b915050620000a5565b506040518060400160405280600881526020016722b732102ab9b2b960c11b815250600160008351600162000144919062000466565b8152602001908152602001600020908162000160919062000384565b5050620004ca565b634e487b7160e01b600052604160045260246000fd5b604051601f8201601f191681016001600160401b0381118282101715620001a957620001a962000168565b604052919050565b60006020808385031215620001c557600080fd5b82516001600160401b0380821115620001dd57600080fd5b8185019150601f8681840112620001f357600080fd5b82518281111562000208576200020862000168565b8060051b620002198682016200017e565b918252848101860191868101908a8411156200023457600080fd5b87870192505b83831015620002e757825186811115620002545760008081fd5b8701603f81018c13620002675760008081fd5b88810151878111156200027e576200027e62000168565b62000291818801601f19168b016200017e565b81815260408e81848601011115620002a95760008081fd5b60005b83811015620002c9578481018201518382018e01528c01620002ac565b505060009181018b019190915283525091870191908701906200023a565b9a9950505050505050505050565b600181811c908216806200030a57607f821691505b6020821081036200032b57634e487b7160e01b600052602260045260246000fd5b50919050565b601f8211156200037f57600081815260208120601f850160051c810160208610156200035a5750805b601f850160051c820191505b818110156200037b5782815560010162000366565b5050505b505050565b81516001600160401b03811115620003a057620003a062000168565b620003b881620003b18454620002f5565b8462000331565b602080601f831160018114620003f05760008415620003d75750858301515b600019600386901b1c1916600185901b1785556200037b565b600085815260208120601f198616915b82811015620004215788860151825594840194600190910190840162000400565b5085821015620004405787850151600019600388901b60f8161c191681555b5050505050600190811b01905550565b634e487b7160e01b600052601160045260246000fd5b808201808211156200047c576200047c62000450565b92915050565b818103818111156200047c576200047c62000450565b634e487b7160e01b600052603260045260246000fd5b600060018201620004c357620004c362000450565b5060010190565b610d0c80620004da6000396000f3fe608060405234801561001057600080fd5b50600436106100625760003560e01c80633b6bd7591461006757806344c9af28146100865780634d20da95146100a6578063520b66b1146100c65780635c8b233c146100ea5780636da49b83146100ff575b600080fd5b61006f610116565b60405161007d929190610887565b60405180910390f35b61009961009436600461091f565b6102b5565b60405161007d9190610970565b6100b96100b436600461091f565b6103eb565b60405161007d91906109d4565b6100d96100d436600461091f565b610485565b60405161007d9594939291906109ee565b6100fd6100f8366004610a37565b610547565b005b61010860005481565b60405190815260200161007d565b6060806000805467ffffffffffffffff81111561013557610135610a91565b60405190808252806020026020018201604052801561015e578160200160208202803683370190505b5090506000805467ffffffffffffffff81111561017d5761017d610a91565b6040519080825280602002602001820160405280156101b057816020015b606081526020019060019003908161019b5790505b50905060005b6000548110156102ab57808382815181106101d3576101d3610aa7565b6020026020010181815250506001600082815260200190815260200160002080546101fd90610abd565b80601f016020809104026020016040519081016040528092919081815260200182805461022990610abd565b80156102765780601f1061024b57610100808354040283529160200191610276565b820191906000526020600020905b81548152906001019060200180831161025957829003601f168201915b505050505082828151811061028d5761028d610aa7565b602002602001018190525080806102a390610af7565b9150506101b6565b5090939092509050565b6040805160a08082018352600080835260208084018290528385018290526060808501526080840182905285825260028152908490208451928301855280548352600181015480861b67ffffffffffffffff1916928401929092529293919291830190600160c01b900460ff16600381111561033357610333610938565b600381111561034457610344610938565b815260200160028201805461035890610abd565b80601f016020809104026020016040519081016040528092919081815260200182805461038490610abd565b80156103d15780601f106103a6576101008083540402835291602001916103d1565b820191906000526020600020905b8154815290600101906020018083116103b457829003601f168201915b505050505081526020016003820154815250509050919050565b6001602052600090815260409020805461040490610abd565b80601f016020809104026020016040519081016040528092919081815260200182805461043090610abd565b801561047d5780601f106104525761010080835404028352916020019161047d565b820191906000526020600020905b81548152906001019060200180831161046057829003601f168201915b505050505081565b600260208190526000918252604091829020805460018201549282018054919484901b93600160c01b900460ff1692916104be90610abd565b80601f01602080910402602001604051908101604052809291908181526020018280546104ea90610abd565b80156105375780601f1061050c57610100808354040283529160200191610537565b820191906000526020600020905b81548152906001019060200180831161051a57829003601f168201915b5050505050908060030154905085565b600084815260026020526040902054158061058557506000848152600260205260409081902060010154901b67ffffffffffffffff19908116908416145b6105c85760405162461bcd60e51b815260206004820152600f60248201526e496d70726f70657220496e7075747360881b60448201526064015b60405180910390fd5b600054811061060c5760405162461bcd60e51b815260206004820152601060248201526f24b73b30b634b2103637b1b0ba34b7b760811b60448201526064016105bf565b600282600381111561062057610620610938565b036106925780156106925760405162461bcd60e51b815260206004820152603660248201527f4c6f636174696f6e206d75737420626520302028496e205472616e73697429206044820152751dda195b881cdd185d1d5cc81a5cc814da1a5c1c195960521b60648201526084016105bf565b6040518060a001604052808581526020018467ffffffffffffffff191681526020018360038111156106c6576106c6610938565b81526020016001600084815260200190815260200160002080546106e990610abd565b80601f016020809104026020016040519081016040528092919081815260200182805461071590610abd565b80156107625780601f1061073757610100808354040283529160200191610762565b820191906000526020600020905b81548152906001019060200180831161074557829003601f168201915b505050918352505042602091820152600086815260028252604090819020835181559183015160018301805491831c6001600160c01b0319831681178255928501519290916001600160c81b03191617600160c01b8360038111156107c9576107c9610938565b0217905550606082015160028201906107e29082610b6d565b50608091909101516003909101556000818152600160205260409081902090517fe37e73ca7f9fcbc0f74bdf4d5f6605aacfa19a8639f56211d6df283835ca16049161083391879186914290610c2d565b60405180910390a150505050565b6000815180845260005b818110156108675760208185018101518683018201520161084b565b506000602082860101526020601f19601f83011685010191505092915050565b604080825283519082018190526000906020906060840190828701845b828110156108c0578151845292840192908401906001016108a4565b50505083810382850152845180825282820190600581901b8301840187850160005b8381101561091057601f198684030185526108fe838351610841565b948701949250908601906001016108e2565b50909998505050505050505050565b60006020828403121561093157600080fd5b5035919050565b634e487b7160e01b600052602160045260246000fd5b6004811061096c57634e487b7160e01b600052602160045260246000fd5b9052565b602081528151602082015267ffffffffffffffff196020830151166040820152600060408301516109a4606084018261094e565b50606083015160a060808401526109be60c0840182610841565b9050608084015160a08401528091505092915050565b6020815260006109e76020830184610841565b9392505050565b85815267ffffffffffffffff1985166020820152610a0f604082018561094e565b60a060608201526000610a2560a0830185610841565b90508260808301529695505050505050565b60008060008060808587031215610a4d57600080fd5b84359350602085013567ffffffffffffffff1981168114610a6d57600080fd5b9250604085013560048110610a8157600080fd5b9396929550929360600135925050565b634e487b7160e01b600052604160045260246000fd5b634e487b7160e01b600052603260045260246000fd5b600181811c90821680610ad157607f821691505b602082108103610af157634e487b7160e01b600052602260045260246000fd5b50919050565b600060018201610b1757634e487b7160e01b600052601160045260246000fd5b5060010190565b601f821115610b6857600081815260208120601f850160051c81016020861015610b455750805b601f850160051c820191505b81811015610b6457828155600101610b51565b5050505b505050565b815167ffffffffffffffff811115610b8757610b87610a91565b610b9b81610b958454610abd565b84610b1e565b602080601f831160018114610bd05760008415610bb85750858301515b600019600386901b1c1916600185901b178555610b64565b600085815260208120601f198616915b82811015610bff57888601518255948401946001909101908401610be0565b5085821015610c1d5787850151600019600388901b60f8161c191681555b5050505050600190811b01905550565b84815260006020610c408184018761094e565b6080604084015260008554610c5481610abd565b80608087015260a0600180841660008114610c765760018114610c9057610cbe565b60ff1985168984015283151560051b890183019550610cbe565b8a6000528660002060005b85811015610cb65781548b8201860152908301908801610c9b565b8a0184019650505b5050505050606093909301939093525094935050505056fea264697066735822122079cfde2765bc33cebe15083a4f0fa4d3347c342f3341d37b2875e3549b6bdfb664736f6c63430008140033",
  "devdoc": {
    "kind": "dev",
    "methods": {},
    "version": 1
  },
  "userdoc": {
    "kind": "user",
    "methods": {},
    "version": 1
  },
  "storageLayout": {
    "storage": [
      {
        "astId": 319,
        "contract": "contracts/StateTransition.sol:StateTransition",
        "label": "nodeCount",
        "offset": 0,
        "slot": "0",
        "type": "t_uint256"
      },
      {
        "astId": 323,
        "contract": "contracts/StateTransition.sol:StateTransition",
        "label": "supplyChainNodes",
        "offset": 0,
        "slot": "1",
        "type": "t_mapping(t_uint256,t_string_storage)"
      },
      {
        "astId": 328,
        "contract": "contracts/StateTransition.sol:StateTransition",
        "label": "productStates",
        "offset": 0,
        "slot": "2",
        "type": "t_mapping(t_uint256,t_struct(ProductState)317_storage)"
      }
    ],
    "types": {
      "t_bytes24": {
        "encoding": "inplace",
        "label": "bytes24",
        "numberOfBytes": "24"
      },
      "t_enum(State)305": {
        "encoding": "inplace",
        "label": "enum StateTransition.State",
        "numberOfBytes": "1"
      },
      "t_mapping(t_uint256,t_string_storage)": {
        "encoding": "mapping",
        "key": "t_uint256",
        "label": "mapping(uint256 => string)",
        "numberOfBytes": "32",
        "value": "t_string_storage"
      },
      "t_mapping(t_uint256,t_struct(ProductState)317_storage)": {
        "encoding": "mapping",
        "key": "t_uint256",
        "label": "mapping(uint256 => struct StateTransition.ProductState)",
        "numberOfBytes": "32",
        "value": "t_struct(ProductState)317_storage"
      },
      "t_string_storage": {
        "encoding": "bytes",
        "label": "string",
        "numberOfBytes": "32"
      },
      "t_struct(ProductState)317_storage": {
        "encoding": "inplace",
        "label": "struct StateTransition.ProductState",
        "members": [
          {
            "astId": 307,
            "contract": "contracts/StateTransition.sol:StateTransition",
            "label": "id",
            "offset": 0,
            "slot": "0",
            "type": "t_uint256"
          },
          {
            "astId": 309,
            "contract": "contracts/StateTransition.sol:StateTransition",
            "label": "hashedRfid",
            "offset": 0,
            "slot": "1",
            "type": "t_bytes24"
          },
          {
            "astId": 312,
            "contract": "contracts/StateTransition.sol:StateTransition",
            "label": "state",
            "offset": 24,
            "slot": "1",
            "type": "t_enum(State)305"
          },
          {
            "astId": 314,
            "contract": "contracts/StateTransition.sol:StateTransition",
            "label": "location",
            "offset": 0,
            "slot": "2",
            "type": "t_string_storage"
          },
          {
            "astId": 316,
            "contract": "contracts/StateTransition.sol:StateTransition",
            "label": "timestamp",
            "offset": 0,
            "slot": "3",
            "type": "t_uint256"
          }
        ],
        "numberOfBytes": "128"
      },
      "t_uint256": {
        "encoding": "inplace",
        "label": "uint256",
        "numberOfBytes": "32"
      }
    }
  }
}