{
  "address": "0xbcfEEDDF6EA213CEC213cCf37b6868261Ad22068",
  "abi": [
    {
      "anonymous": false,
      "inputs": [
        {
          "indexed": true,
          "internalType": "address",
          "name": "_token",
          "type": "address"
        },
        {
          "indexed": true,
          "internalType": "address",
          "name": "recipient",
          "type": "address"
        },
        {
          "indexed": true,
          "internalType": "uint256",
          "name": "value",
          "type": "uint256"
        },
        {
          "indexed": false,
          "internalType": "address",
          "name": "sender",
          "type": "address"
        }
      ],
      "name": "MultiTransfer",
      "type": "event"
    },
    {
      "anonymous": false,
      "inputs": [
        {
          "indexed": true,
          "internalType": "address",
          "name": "previousOwner",
          "type": "address"
        },
        {
          "indexed": true,
          "internalType": "address",
          "name": "newOwner",
          "type": "address"
        }
      ],
      "name": "OwnershipTransferred",
      "type": "event"
    },
    {
      "inputs": [
        {
          "internalType": "address[]",
          "name": "_to",
          "type": "address[]"
        },
        {
          "internalType": "address[]",
          "name": "_tokenAddress",
          "type": "address[]"
        },
        {
          "internalType": "uint256[]",
          "name": "_value",
          "type": "uint256[]"
        }
      ],
      "name": "multiSend",
      "outputs": [
        {
          "internalType": "bool",
          "name": "success",
          "type": "bool"
        }
      ],
      "stateMutability": "nonpayable",
      "type": "function"
    },
    {
      "inputs": [],
      "name": "owner",
      "outputs": [
        {
          "internalType": "address",
          "name": "",
          "type": "address"
        }
      ],
      "stateMutability": "view",
      "type": "function"
    },
    {
      "inputs": [],
      "name": "renounceOwnership",
      "outputs": [],
      "stateMutability": "nonpayable",
      "type": "function"
    },
    {
      "inputs": [
        {
          "internalType": "address",
          "name": "newOwner",
          "type": "address"
        }
      ],
      "name": "transferOwnership",
      "outputs": [],
      "stateMutability": "nonpayable",
      "type": "function"
    },
    {
      "inputs": [],
      "name": "withdraw",
      "outputs": [],
      "stateMutability": "nonpayable",
      "type": "function"
    },
    {
      "stateMutability": "payable",
      "type": "receive"
    }
  ],
  "transactionHash": "0x665fe8e1f2fef18e724a1ede8cb8336b34992ad79b25844b16d8670d9438489b",
  "args": [],
  "numDeployments": 1,
  "solcInputHash": "e305c6a6f22e65a99d35f7c70120bd65",
  "bytecode": "0x608060405234801561001057600080fd5b5061002d61002261003260201b60201c565b61003a60201b60201c565b6100fe565b600033905090565b60008060009054906101000a900473ffffffffffffffffffffffffffffffffffffffff169050816000806101000a81548173ffffffffffffffffffffffffffffffffffffffff021916908373ffffffffffffffffffffffffffffffffffffffff1602179055508173ffffffffffffffffffffffffffffffffffffffff168173ffffffffffffffffffffffffffffffffffffffff167f8be0079c531659141344cd1fd0a4f28419497f9722a3daafe3b4186f6b6457e060405160405180910390a35050565b610c0f8061010d6000396000f3fe60806040526004361061004e5760003560e01c80633ccfd60b1461005a578063715018a6146100715780638da5cb5b14610088578063cc348cb7146100b3578063f2fde38b146100f057610055565b3661005557005b600080fd5b34801561006657600080fd5b5061006f610119565b005b34801561007d57600080fd5b506100866101d0565b005b34801561009457600080fd5b5061009d6101e4565b6040516100aa9190610648565b60405180910390f35b3480156100bf57600080fd5b506100da60048036038101906100d59190610728565b61020d565b6040516100e791906107f7565b60405180910390f35b3480156100fc57600080fd5b506101176004803603810190610112919061083e565b61043a565b005b6101216104bd565b60003373ffffffffffffffffffffffffffffffffffffffff16476040516101479061089c565b60006040518083038185875af1925050503d8060008114610184576040519150601f19603f3d011682016040523d82523d6000602084013e610189565b606091505b50509050806101cd576040517f08c379a00000000000000000000000000000000000000000000000000000000081526004016101c49061090e565b60405180910390fd5b50565b6101d86104bd565b6101e2600061053b565b565b60008060009054906101000a900473ffffffffffffffffffffffffffffffffffffffff16905090565b6000848490508787905014610257576040517f08c379a000000000000000000000000000000000000000000000000000000000815260040161024e9061097a565b60405180910390fd5b60005b8787905081101561042b578585828181106102785761027761099a565b5b905060200201602081019061028d919061083e565b73ffffffffffffffffffffffffffffffffffffffff1663a9059cbb8989848181106102bb576102ba61099a565b5b90506020020160208101906102d0919061083e565b8686858181106102e3576102e261099a565b5b905060200201356040518363ffffffff1660e01b81526004016103079291906109e2565b6020604051808303816000875af1158015610326573d6000803e3d6000fd5b505050506040513d601f19601f8201168201806040525081019061034a9190610a37565b5083838281811061035e5761035d61099a565b5b905060200201358888838181106103785761037761099a565b5b905060200201602081019061038d919061083e565b73ffffffffffffffffffffffffffffffffffffffff168787848181106103b6576103b561099a565b5b90506020020160208101906103cb919061083e565b73ffffffffffffffffffffffffffffffffffffffff167f26ab73015529167b20931532360a27d9605fe0551ed133c68c0a330369c42826336040516104109190610648565b60405180910390a4808061042390610a93565b91505061025a565b50600190509695505050505050565b6104426104bd565b600073ffffffffffffffffffffffffffffffffffffffff168173ffffffffffffffffffffffffffffffffffffffff16036104b1576040517f08c379a00000000000000000000000000000000000000000000000000000000081526004016104a890610b4d565b60405180910390fd5b6104ba8161053b565b50565b6104c56105ff565b73ffffffffffffffffffffffffffffffffffffffff166104e36101e4565b73ffffffffffffffffffffffffffffffffffffffff1614610539576040517f08c379a000000000000000000000000000000000000000000000000000000000815260040161053090610bb9565b60405180910390fd5b565b60008060009054906101000a900473ffffffffffffffffffffffffffffffffffffffff169050816000806101000a81548173ffffffffffffffffffffffffffffffffffffffff021916908373ffffffffffffffffffffffffffffffffffffffff1602179055508173ffffffffffffffffffffffffffffffffffffffff168173ffffffffffffffffffffffffffffffffffffffff167f8be0079c531659141344cd1fd0a4f28419497f9722a3daafe3b4186f6b6457e060405160405180910390a35050565b600033905090565b600073ffffffffffffffffffffffffffffffffffffffff82169050919050565b600061063282610607565b9050919050565b61064281610627565b82525050565b600060208201905061065d6000830184610639565b92915050565b600080fd5b600080fd5b600080fd5b600080fd5b600080fd5b60008083601f8401126106925761069161066d565b5b8235905067ffffffffffffffff8111156106af576106ae610672565b5b6020830191508360208202830111156106cb576106ca610677565b5b9250929050565b60008083601f8401126106e8576106e761066d565b5b8235905067ffffffffffffffff81111561070557610704610672565b5b60208301915083602082028301111561072157610720610677565b5b9250929050565b6000806000806000806060878903121561074557610744610663565b5b600087013567ffffffffffffffff81111561076357610762610668565b5b61076f89828a0161067c565b9650965050602087013567ffffffffffffffff81111561079257610791610668565b5b61079e89828a0161067c565b9450945050604087013567ffffffffffffffff8111156107c1576107c0610668565b5b6107cd89828a016106d2565b92509250509295509295509295565b60008115159050919050565b6107f1816107dc565b82525050565b600060208201905061080c60008301846107e8565b92915050565b61081b81610627565b811461082657600080fd5b50565b60008135905061083881610812565b92915050565b60006020828403121561085457610853610663565b5b600061086284828501610829565b91505092915050565b600081905092915050565b50565b600061088660008361086b565b915061089182610876565b600082019050919050565b60006108a782610879565b9150819050919050565b600082825260208201905092915050565b7f4661696c656420746f2073656e64204574686572000000000000000000000000600082015250565b60006108f86014836108b1565b9150610903826108c2565b602082019050919050565b60006020820190508181036000830152610927816108eb565b9050919050565b7f496e76616c696420496e70757420446174610000000000000000000000000000600082015250565b60006109646012836108b1565b915061096f8261092e565b602082019050919050565b6000602082019050818103600083015261099381610957565b9050919050565b7f4e487b7100000000000000000000000000000000000000000000000000000000600052603260045260246000fd5b6000819050919050565b6109dc816109c9565b82525050565b60006040820190506109f76000830185610639565b610a0460208301846109d3565b9392505050565b610a14816107dc565b8114610a1f57600080fd5b50565b600081519050610a3181610a0b565b92915050565b600060208284031215610a4d57610a4c610663565b5b6000610a5b84828501610a22565b91505092915050565b7f4e487b7100000000000000000000000000000000000000000000000000000000600052601160045260246000fd5b6000610a9e826109c9565b91507fffffffffffffffffffffffffffffffffffffffffffffffffffffffffffffffff8203610ad057610acf610a64565b5b600182019050919050565b7f4f776e61626c653a206e6577206f776e657220697320746865207a65726f206160008201527f6464726573730000000000000000000000000000000000000000000000000000602082015250565b6000610b376026836108b1565b9150610b4282610adb565b604082019050919050565b60006020820190508181036000830152610b6681610b2a565b9050919050565b7f4f776e61626c653a2063616c6c6572206973206e6f7420746865206f776e6572600082015250565b6000610ba36020836108b1565b9150610bae82610b6d565b602082019050919050565b60006020820190508181036000830152610bd281610b96565b905091905056fea2646970667358221220af09b4307b311c5e25b61270c4f265fdc8b420c25e03fcc9e83495ab29c3b4aa64736f6c63430008110033",
  "devdoc": {
    "author": "BuidlGuidl",
    "kind": "dev",
    "methods": {
      "owner()": {
        "details": "Returns the address of the current owner."
      },
      "renounceOwnership()": {
        "details": "Leaves the contract without owner. It will not be possible to call `onlyOwner` functions anymore. Can only be called by the current owner. NOTE: Renouncing ownership will leave the contract without an owner, thereby removing any functionality that is only available to the owner."
      },
      "transferOwnership(address)": {
        "details": "Transfers ownership of the contract to a new account (`newOwner`). Can only be called by the current owner."
      }
    },
    "version": 1
  },
  "userdoc": {
    "kind": "user",
    "methods": {},
    "notice": "A smart contract that allows changing a state variable of the contract and tracking the changes It also allows the owner to withdraw the Ether in the contract",
    "version": 1
  },
  "storageLayout": {
    "storage": [
      {
        "astId": 7,
        "contract": "contracts/YourContract.sol:YourContract",
        "label": "_owner",
        "offset": 0,
        "slot": "0",
        "type": "t_address"
      }
    ],
    "types": {
      "t_address": {
        "encoding": "inplace",
        "label": "address",
        "numberOfBytes": "20"
      }
    }
  }
}